:020000040800F2
:1000000000000120E5010008B50C0008A50C00085F
:10001000950C0008850C0008750C00080000000015
:10002000000000000000000000000000650C000857
:10003000550C000800000000450C000825020008CF
:1000400025020008250200082502000825020008F4
:1000500025020008250200082502000825020008E4
:1000600025020008250200082502000825020008D4
:1000700025020008250200082502000825020008C4
:1000800025020008250200082502000825020008B4
:1000900025020008250200082502000825020008A4
:1000A0002502000825020008250200082502000894
:1000B0002502000825020008250200082502000884
:1000C0002502000825020008250200082502000874
:1000D0002502000825020008250200082502000864
:1000E0002502000825020008250200082502000854
:1000F0002502000825020008250200082502000844
:100100002502000825020008250200082502000833
:100110002502000825020008250200082502000823
:100120002502000825020008250200082502000813
:1001300000000000000000000000000000000000BF
:1001400000000000000000000000000000000000AF
:10015000000000000000000000000000000000009F
:10016000000000000000000000000000000000008F
:10017000000000000000000000000000000000007F
:10018000000000000000000000000000000000006F
:10019000000000000000000000000000000000005F
:1001A000000000000000000000000000000000004F
:1001B000000000000000000000000000000000003F
:1001C000000000000000000000000000000000002F
:1001D000000000000000000000000000000000001F
:0401E0005FF8E0F1F3
:1001E400002103E0094B5B58435004310848094B94
:1001F40042189A42F6D3084A02E0002342F8043B2C
:10020400064B9A42F9D300F033F87047840F000884
:100214000000002000000020000000202800002032
:10022400FEE7000010B50B4800F044FA0A4B1B88A7
:1002340013F0400FFAD00949094B9960094B1A6829
:10024400094B1A60094B1A600B6883F308889047BE
:1002540010BDC046C40C000800380140001000085E
:1002640000ED00E004100008080000200C0000204D
:1002740010B5374C00F0C8F800F08EF800F0C0F963
:10028400E26945F63C23B3EB922F50D000F028F9F5
:10029400236A4FF6FE7203EA02024FF6FE739A4295
:1002A40008D02C4B9888D98880B289B200F046F9DE
:1002B400294846E02749294B8A881A70CA88284B5E
:1002C4001A7000F041FA274800F0F4F9264800F0CB
:1002D400F1F9264800F0EEF90021254800F0F6F97E
:1002E400244800F0E7F90221662000F0EFF920200D
:1002F40000F0B4F9204800F0DDF9202000F0AEF958
:100304001E4800F0D7F91E4800F0D4F900F04AF96D
:10031400B0B11C4800F0CEF900F0DEFB50B11A4831
:1003240000F0C8F9194B1B8813F0400FFAD1FFF7FE
:1003340079FF08E0164800F0BDF900F053FBFCE734
:10034400144800F0B7F900F04DFB00F087F9FAE724
:100354000020024000F8FF1FDC0C00081000002001
:1003640011000020FF0C0008360D0008670D00087E
:10037400C3AEC602740D0008770D0008830D000893
:100384008C0D0008900D0008B20D000800380140E3
:10039400CB0D0008E60D0008144A154B30B54FF09C
:1003A4004435156013495360134C144B0020D0603E
:1003B400196002F500625C60D8604FF0223311606E
:1003C40053604FF44463D3600D4B02F580621560B3
:1003D40053604FF40043D3600A4B02F5806214600B
:1003E40053604FF42063D36030BDC0460008014021
:1003F400A4444A444444444242222222000C014080
:1004040044442224222224221B4A136843F0010379
:100414001360194A136813F0020FFAD04FF48043A3
:100424005360136823F0847323F4803313601368D8
:1004340023F4802313604FF41F039360136843F481
:10044400803313600C490B6813F4003FFAD0012386
:100454004B600A4B10221A60CB694FF4E02243F040
:100464000073CB6144F27D238B614B6943F001033C
:100474004B61034B5A627047001002400020024057
:1004840000ED00E00C4BDB6813F0140301D00020F6
:1004940010E0184600E00130074BDB6813F0010F51
:1004A40003D06FF07F439842F5D1044B98428CBF40
:1004B400002001207047C04600200240FEFFFF00DC
:1004C40070B505460C46FFF7DDFF024618B1034B35
:1004D40001221A612C80104670BDC04600200240E3
:1004E400064A136913F0800F04D0054B536003F1DF
:1004F40088335360014B3422DA6070470020024095
:100504002301674510B5094800F0D4F8084B1B884F
:1005140013F0400FFAD00749074BCA6802F4E062AF
:1005240042EA0303CB60BFF34F8FFEE7050E0008DA
:100534000038014000ED00E00400FA052DE9F04127
:1005440006460F46FFF79EFF18B3134D134BAB60DF
:1005540003F18833AB604FF408732B6140332B6194
:10056400FFF790FFA8B10E4C4FF404732B61A680E3
:10057400FFF788FF68B1E780FFF784FF48B14FF0C9
:1005840000032380FFF77EFF18B180232B61FFF760
:10059400B9FFBDE8F081C046002002402301674551
:1005A40000F8FF1F70B5FFF76DFF0346A0B10A20E6
:1005B40000F054F80E4C0F4800F07CF80E4D204625
:1005C40000F06EF802232B6140336C612B61FFF75E
:1005D40059FF034610B92861184607E0074B04F594
:1005E40000649C42E7D100232B61012070BDC0460A
:1005F40000100008110E000800200240000001084D
:100604000E4A4FF00C03938100214FF040031182F6
:10061400938240F24133138193899BB243F4005394
:100624009381074A074B11609360074BD3601423EF
:10063400536041F2A10313607047C0460038014083
:1006440058000240043801401200002000F00F005E
:10065400092801D8303000E037307047034B9880C8
:10066400024B1B8813F0800FFAD07047003801400A
:1006740010B504460009FFF7E9FFFFF7EFFF204636
:10068400FFF7E4FFFFF7EAFF10BDC04610B50446CC
:10069400000AFFF7EDFFE0B2FFF7EAFF10BDC04626
:1006A40010B50446000CFFF7F1FFA0B2FFF7EEFF10
:1006B40010BDC04670B50546002401E0FFF7CEFF2B
:1006C400285D01340028F9D170BDC0462DE9F047FA
:1006D400071E894603DA2D20FFF7C0FF7F42144E20
:1006E4004FF0000809254D4502D14FF0010806E0FE
:1006F40009F1FF339D4202D12E20FFF7AFFF97FB94
:10070400F6F3DCB214B9B8F1000F08D02046FFF7B5
:100714009DFFFFF7A3FF06FB14774FF00108013D8F
:1007240003D30A2396FBF3F6DDE7BDE8F087C04662
:1007340000CA9A3B10B5FFF7BDFF024B01221A70A5
:1007440010BDC046000000202D4A2E4B10B51A6083
:10075400002207E04FF6FF739A4201D0013201E014
:10076400294843E0274C636813F0010FF2D0274B6C
:100774000020E361D4F80032254943F00103C4F8B2
:10078400003243F6FF73C4F81C02C4F80C3242F67C
:10079400B223C4F80402C4F814321E4B1A781E4B58
:1007A400D20042EA0303C4F860321C4BC4F864125A
:1007B4001B7842EAC3221A4B42EA0303C4F86832A4
:1007C4003023C4F86C12C4F81C32D4F8003223F07D
:1007D4000103C4F80032134B6061236009E04FF653
:1007E400FF73984201D0013003E00F48FFF762FF26
:1007F40004E0044B5B6813F0010FF0D110BDC04658
:100804006100010000640040230E000801003A006A
:10081400FEFFFF0F1100002004F87F0710000020E6
:100824000400780760000100340E00080A4A936847
:1008340013F0806F01D009480CE0936813F0006F47
:1008440001D0074806E09368064A13F080530CBFB2
:10085400184610467047C04600640040806500405A
:1008640090650040A065004010B5FFF7DFFF044627
:10087400A0B10B4B19780B4B1A780B4BD20042EA00
:10088400C12242EA03030360084B8360084BC36040
:1008940007234360036843F00103036010BDC046AF
:1008A4001100002010000020040060C7110100FFA7
:1008B400FF23EF0010B5FFF7B9FF0446A8B10B4BB7
:1008C40019780B4B1A780B4BD20042EAC12242EA48
:1008D40003030360084B836046F20263C36007238B
:1008E4004360036843F00103036010BD110000205E
:1008F40010000020040078C726C3AEC60F4A10B506
:10090400D2F8C83103F0FF03242B04D0262B0CD0DB
:10091400232B0FD101E001200FE0D2F8C011084BC6
:10092400C9081878FFF70AFE06E020231361FFF7D1
:10093400C1FF01E020231361002010BD00640040CA
:100944001000002010B5244B1B6913F0030FFAD0DC
:10095400FFF7D4FF0028F6D0204B5B78062B37D85E
:10096400DFE803F0040B141A20272E001A4B01228F
:10097400D3F8C831C3F3072005E0174B0222D3F89C
:10098400C831C3F30740154B5A7024E0124B0322BD
:10099400D3F8C831180EF6E70F4B0422D3F8CC3144
:1009A400D8B2F0E70C4B0522D3F8CC31C3F30720BF
:1009B400E9E7094B0622D3F8CC31C3F30740E2E759
:1009C400054AD2F8CC31180E202313610022DAE74D
:1009D4000348FFF7AFFE10BD006400400000002094
:1009E4004A0E00080C4A10B59378012B10D1D27826
:1009F4000A4B5B68C3F114039A42F9D0084B122ADC
:100A0400985C054901D8531C00E00023CB7001E039
:100A1400FFF798FF10BDC0460000002058000240B8
:100A240012000020462810B505D841280AD23038D3
:100A340009280ED804E0A0F16103052B09D804E0CD
:100A4400C0B20CE0A0F1370301E0A0F15703D8B223
:100A540005E0034B1B7813B90248FFF76BFE10BD8A
:100A640000000020600E000810B5FFF7BBFFFFF781
:100A7400D9FF0401FFF7B6FFFFF7D4FF044AA4B27D
:100A840024181378E4B2E3181370204610BDC0464E
:100A94000400002010B5FFF7E7FF0446FFF7E4FF6A
:100AA40004EB0024A0B210BD10B5FFF7DDFF040273
:100AB400FFF7DAFFA4B22418A0B210BD10B5FFF7F7
:100AC400D3FF034B1B7813B10248FFF733FE10BD6D
:100AD400040000207F0E00084F4B08222DE9F04748
:100AE4001A61FFF7C1FE0FE04C4B5B68142B01D079
:100AF400012308E04A4B1B6913F0030F04D0FFF7EE
:100B0400FDFE08B102232370464C2378002BEBD062
:100B1400414B082200275A61B84609F101035FFAE4
:100B240083F919F0060F03D03B4B04221A6102E04B
:100B3400394B04225A61FFF755FF3A28FBD1394B50
:100B44001B78012B02D12320FFF788FD364B0022AE
:100B54001A70FFF789FF0646FFF7A6FF0446FFF762
:100B640083FF0546052846D8DFE800F0052F320349
:100B74004103002436E02D4B1B78002B40D107EBBA
:100B8400083304EB03152A4B9D421AD816F0010FC3
:100B940003D02848FFF7CEFD01E0C6F347062C46F4
:100BA4000AE0FFF777FF01462046FFF789FC10B9FA
:100BB4002148FFF7BFFD023405EB46039C42F0D108
:100BC40009E02D20FFF74AFD1AE0FFF777FF1BE04D
:100BD400FFF76AFF0746FFF771FF11E0FFF744FFD5
:100BE400631CDCB2B442F9D3FFF768FF06E0FFF7F9
:100BF4005BFF8046EFE71148FFF79CFD012D03D012
:100C04000A4B1B78002B88D0084B1878D0F10100D0
:100C140038BF0020BDE8F0870018014058000240AA
:100C240000640040020000200400002000000020B6
:100C3400FFFF0008A00E0008C90E0008E90E000816
:100C440010B50248FFF736FD10BDC046080F000876
:100C540010B50248FFF72EFD10BDC046180F00085E
:100C640010B50248FFF726FD10BDC0462B0F000843
:100C740010B50248FFF71EFDFEE7C046340F00081A
:100C840010B50248FFF716FDFEE7C046450F000801
:100C940010B50248FFF70EFDFEE7C046540F0008EA
:100CA40010B50248FFF706FDFEE7C046680F0008CE
:100CB40010B50248FFF7FEFC10BDC046780F0008CF
:100CC4000A0D457865637574696E67206170706C90
:100CD40069636174696F6E000A0D4572726F7220E8
:100CE40064697361626C696E6720777269746520E8
:100CF40070726F74656374696F6E000A0D2D2D2D0B
:100D04002D2D2020446F6F73616E20496E667261D1
:100D1400636F726520496E7465726E6174696F6E7B
:100D2400616C20506F727461626C6520506F7765DE
:100D340072000A0D2D2D2D2D2D2020496E2D436975
:100D4400726375697420426F6F74204C6F616465BF
:100D54007220666F722053544D333246313033560D
:100D64004554000A0D2D2D2D2D2D2020504E3A00D6
:100D74002056004E6F762031382032303131003128
:100D8400303A34383A3133000A0A0D000A0D5265FC
:100D940061647920746F2072656365697665207477
:100DA4006865204845582066696C650A0D000A0D7F
:100DB4005375636365737366756C2070726F6772C5
:100DC400616D6D696E67000A0D4572726F72206401
:100DD4007572696E672070726F6772616D6D696E8E
:100DE40067000A0D50726F626C656D2065726173E5
:100DF400696E6720464C415348206D656D6F72796A
:100E0400000A0D526573657474696E67000D45724E
:100E14006173696E6720464C415348203078000A5C
:100E24000D424C3A2043414E206572726F7221008C
:100E34000A0D424C3A2043414E20696E6974206584
:100E440072726F7221000A0D20496E7465726E61B0
:100E54006C2043414E206572726F72000A0D455238
:100E6400524F52203A204261642048455820666916
:100E74006C6520666F726D617420000A0D455252D4
:100E84004F52203A20426164204845582066696CDC
:100E94006520636865636B73756D20000A0D4552A8
:100EA400524F52203A205265636F72642068617316
:100EB400206F6464206E756D626572206F662062B7
:100EC40079746573000A0D4552524F52203A2050EE
:100ED400726F626C656D2077726974696E67204603
:100EE4004C415348000A0D4552524F52203A204279
:100EF400616420484558207265636F726420747978
:100F0400706520000D0A424C2050656E64696E675E
:100F1400205356000D0A424C204465627567204DEB
:100F24006F6E69746F72000D0A424C205356430071
:100F34000D0A424C205573616765204661756C74D7
:100F4400000D0A424C20427573204661756C740092
:100F54000D0A424C204D656D6F7279204D616E61B2
:100F6400676572000D0A424C204861726420466134
:100F7400756C74000D0A424C204E4D49000000006F
:04000005080001E40A
:00000001FF
