:020000040800F2
:1010000000000120E511000809300008CD3000087B
:10101000BD300008AD3000089D3000080000000021
:10102000000000000000000000000000F92F000890
:10103000E92F000800000000D92F0008094100082E
:101040004141000825120008251200082512000859
:101050002512000825120008251200082512000894
:101060002512000825120008251200084515000861
:101070002512000825120008993D000825120008D5
:101080002512000825120008251200082512000864
:101090003D250008852200082512000825120008B9
:1010A0002512000825120008251200082512000844
:1010B0002512000825410008251200082512000805
:1010C0002512000825120008251200082512000824
:1010D0002512000825120008251200082512000814
:1010E0002512000825120008251200082512000804
:1010F00025120008251200082512000825120008F4
:1011000025120008251200082512000825120008E3
:1011100025120008251200082512000825120008D3
:1011200025120008251200082512000825120008C3
:1011300000000000000000000000000000000000AF
:10114000000000000000000000000000000000009F
:10115000000000000000000000000000000000008F
:10116000000000000000000000000000000000007F
:10117000000000000000000000000000000000006F
:10118000000000000000000000000000000000005F
:10119000000000000000000000000000000000004F
:1011A000000000000000000000000000000000003F
:1011B000000000000000000000000000000000002F
:1011C000000000000000000000000000000000001F
:1011D000000000000000000000000000000000000F
:0411E0005FF8E0F1E3
:1011E400002103E0094B5B58435004310848094B84
:1011F40042189A42F6D3084A02E0002342F8043B1C
:10120400064B9A42F9D300F00DF87047EC550008EC
:10121400000000200800002008000020040A00202C
:10122400FEE70000594A5A4B10B5DA6002F0E6FEB8
:1012340001F052FF574B01221A7002F0A1FE02F096
:1012440039FF554B33221A7000F032FC02F038F8A3
:1012540001F02CFE514B45F63C24DB69B4EB932F93
:101264000DD04F4B0F20D988C9B200F0E5FC022005
:1012740002F032FF204601F02BFE01F0CBFE00F01D
:101284006BF9484802F072FE474802F06FFE01F025
:10129400A7FD464B00229A70454B01201A70454B1E
:1012A40003321A70444B013A1A70444A45F25553BA
:1012B40013604AF6AA23136002F018FF404841491C
:1012C40003680A889BB29A4242D003680B804B8819
:1012D40001339AB2322A4A8001D901230B7102F0F8
:1012E4000F03072B25D8DFE803F004070A0D1013BA
:1012F4001F2202F02BF81CE001F0FCFF19E000F0C3
:101304007DF916E001F026FF13E001F091FA10E0F8
:10131400264A9378022B02D0032B0AD101E003233F
:1013240000E00423937004E000F0D4F801E002F03C
:1013340037F800F0B3FA00F06FF801F0CFFF224A5B
:1013440013880BB1013B138000F064FD00F0C0FA78
:1013540000F032FB02F0E6FC02F074F81B4B9C78C0
:101364004CB901F07BFC1A4802F000FE02F0E2FDE9
:10137400084B1C70FEE700F063F9104B45F2555220
:101384001A604AF6AA221A6098E7C0460007FA05CE
:1013940000ED00E0BC812242320100200020024026
:1013A40000F8FF1FE045000805460008380100204A
:1013B400A9010020AA010020AF0100200030004054
:1013C4005800002008000020EC010020B10100209A
:1013D4002346000830B50C2242430E4CA35CA518EA
:1013E400013303F00303A35406224243D31804EB4E
:1013F4004303598004EB42026B889288D21803237A
:10140400434304EB8304E388D2182B89D2186A81FE
:1014140030BDC046780000202DE9F0411F4C072064
:101424006188FFF7D7FF0820E189FFF7D3FF092080
:10143400A189FFF7CFFF1A4F0A202188FFF7CAFFBF
:101444000B20618AFFF7C6FF3E780C237343154ACD
:101454003046D518D35C34F81310FFF7BBFF6B6824
:1014640000221A70AB68052E1A7002D8731C3B70E8
:1014740000E03A700A4B0C2219780A4B02FB013146
:101484004B78094A5B0343F0604313614B680122C4
:101494001A708B681A70BDE8F081C04664000020A1
:1014A4000E000020504100080010014040F27A6311
:1014B400984201D800200BE0A0F5CE630A3B4B43D1
:1014C40003F5CE53273343F2CF32B3FBF2F398B292
:1014D4007047C04613481449B0F98230134A5B116F
:1014E40031F8133010B51380B0F95E2040F25C532C
:1014F400534303F500431A0C0D4BB2F5827F1A8057
:1015040001D9012202E0FE2A02D80022094B1A70F6
:10151400044BB3F86A00084B1988FFF7C7FF074B61
:10152400188010BD78000020E0410008140100205C
:10153400080100200C0100202201002010010020DD
:1015440010B5034802F012FD024B01225A6010BD8F
:1015540035460008000002401F4A002313601F4B59
:101564001F4993601F4B10B5D3600A23536042F2A6
:10157400A85313604B680B2043F00F034B601368B0
:10158400022143F00103136001F006FD164A4FF4F3
:1015940080735360154B9360154BD36003F1D8539C
:1015A40013614FF41003D362124B1363124B536352
:1015B4000D4A936813F0080FFAD1936843F00403BB
:1015C4009360094A936813F0040FFAD1936843F4C3
:1015D4008003936010BDC046080002404C240140C3
:1015E4000000024064000020002401400B011E00A2
:1015F400DBB66D008EA905002088610E0C4A1378B5
:101604000E2B01D9002300E001331370084B002195
:101614001A789B18074AD28D5A700A46064B9B5C6F
:101624000132CB18102A99B2F8D1044B19807047B3
:10163400100000207800002011000020120100207A
:10164400444B70B5187818B9434B0446187035E00C
:10165400424B41491B78082B07D8072B1AD2052B7C
:101664000FD015D8022B21D309E00A2B05D017D3AC
:101674000D2B0FD0222B19D101E0012306E0022308
:1016840004E0374B1A68374B5A6203230B7014E09B
:101694000423FBE70B78052B0FD004222E4B03E029
:1016A40007230B70304B01221A7006E006230B70DF
:1016B4002E4B1B780BB1012400E0002426490B7843
:1016C400042B02D0052B21D10DE0284B1B78EBB95C
:1016D400274B93F82830012B18D1214B1A68214B42
:1016E4005A62052303E0214B1B7813B104230B70CA
:1016F4000CE01B4B1A681B4B5B6AD21A1D4B92B24F
:101704001A801B4B9B8A934298BF0224154B93F873
:101714002830A3420DD1184D288850B1174C1049D8
:1017240022680B689A4213D00B682360431E2B80F7
:101734000EE0134A13785BB9053313700E4B4FF068
:10174400C8021A80204600F067F8064B83F8284048
:1017540070BDC046AE010020AC0100202C01002069
:101764005800002010000020AB010020B001002030
:10177400740100200E010020000000206000002001
:101784006A0100200E4A6FF01003D3700D4B05213F
:101794001B781370262393700B4B19706FF05A0348
:1017A40053716FF0780393714033D3713B331372E9
:1017B400013B53725B185370002313717047C0468A
:1017C4003B010020180100206B0100200F4A6FF03C
:1017D40010030F49D370413313700323937091F8AE
:1017E4002A3053714B8A93711B0AD3718B8A1372FB
:1017F4001B0A5372CB8A0C2193721B0AD372054BBA
:101804001970072353700023137170473B010020A4
:10181400740100206B010020134A6FF01003D37091
:1018240041331370114B4FF0010C1B7882F802C046
:1018340053710F4BD0711B78937100231372537241
:101844000C4B197811B982F80AC003E00A4B93F8DB
:1018540030309372044A094BD1720C21197007235A
:1018640053700023137170473B010020AE01002028
:10187400B0010020AC010020740100206B010020A5
:101884000368C3F3C723E52B04D18368024A0133F9
:101894005B0813607047C0462801002008490A8885
:1018A40012B1531E0B8001E0064B1A70064A074919
:1018B400138813B1013B138003230B707047C04698
:1018C4002E0100206A0100203C000020AA01002013
:1018D400084B10B59B7813B1012B0AD104E001F039
:1018E400E7F901F043F904E0034B4120197800F0D3
:1018F400A3F910BD3C0000202D01002010B5274C99
:10190400E378EF2B02D0FE2B45D139E0A3780F2BDF
:1019140017D002D8022B3ED104E01D2B18D0402B47
:1019240039D122E063790A2B01D1463316E01C48F1
:10193400818803292FD823781A4A53544B1C838057
:1019440029E0194A9378062B25D10133937022E0BC
:1019540063790A2B05D101F015FA50236371012034
:101964001AE0124802F002FB15E02278104B1A70BC
:101974000B4B01229A700F4B4FF000021A800AE0C1
:10198400A378CA2B02D0EB2B05D102E000F036FA83
:1019940001E000F041FA002010BDC0463B010020E8
:1019A4003C0000201C0100203801002043460008B0
:1019B4002D01002030010020344B70B59B69344A5E
:1019C40013F0040F334B07D01B683348643393710F
:1019D40002F0CCFA002205E01B689279DBB29A424D
:1019E40002D101222D4B1A702D4B1B78062B4BD89C
:1019F400DFE803F036044A0E1621240000F0E4FD6B
:101A0400002841D0274B4FF47A721A80022204E056
:101A140000F0A8FD002837D00422214B1A7033E0CF
:101A2400FFF76CFF1E49034618B11F4A00231371C8
:101A340005330B7028E000F075FE25E0144CE379C3
:101A440013B3184B4FF47A721A8000F0EDFDD8B13D
:101A5400154B1A7901321A71E379013BE37113E0F2
:101A64000B4D2C7A3CB10E4A05231370FFF7AEFEE2
:101A740000232B7208E00D4D2B782BB1084B052267
:101A84001A70FFF77FFE2C7070BDC04600640040E2
:101A94003C000020580000205F460008020000209F
:101AA4006A0100202E0100203B01002018010020C3
:101AB400404A414B10B51A60002205E00132B2F5EC
:101AC400803F01D13D4811E03B494B6813F0010FC1
:101AD400F4D03B4B0022CB610B6823F001030B6075
:101AE40007E00132B2F5803F03D1364802F03EFAF6
:101AF4005EE03148436813F00104F2D1D0F80032BB
:101B0400314A43F00103C0F8003243F6FF73C0F8D2
:101B14001C42C0F80C3242F6B223C0F80442C0F8AA
:101B240014322A4B2A49C0F8403203F50043C0F866
:101B34004422C0F84832A3F5EF03C0F84C22C0F8A1
:101B44005032244B244AC0F85432244BC0F8583243
:101B5400234BC0F85C12C0F86032224BC0F86422F8
:101B64001B78DB0243F0E86343F00403C0F86832F7
:101B74001D4BC0F86C22C0F870327F23C0F8741279
:101B8400C0F81C32D0F80032012123F00103C0F860
:101B9400003212234361142001F0FEF915200121C3
:101BA40001F0FAF9114B4FF47A721C70104B1A8041
:101BB40010BDC04641000100006400406E460008AC
:101BC40007003A00804600080680FF0F0400F7076C
:101BD40006F8FF0F06C0FF0F06F8C70F0450F607FC
:101BE40004F847073201002004F8F6076A010020D0
:101BF4002E0100200B4B1B7893B10B4A936813F012
:101C0400806F01D009480CE0936813F0006F01D095
:101C1400074806E0936813F0805F01D0054800E0B0
:101C240000207047020000200064004080650040EE
:101C340090650040A065004070B504460E46FFF76D
:101C4400D9FF0546002800F0C280624B1A78624B27
:101C5400D20042EA030343EAC623242C03602ED0B5
:101C64000FD80F2C1ED006D8022C00F08D80092C22
:101C740040F0AD803DE01D2C18D0232C40F0A7800F
:101C840019E0A52C00F0848005D8402C49D0412CC3
:101C940040F09D804AE0A62C00F08380A72C40F001
:101CA400968086E00123436084608AE002234360D7
:101CB40040F61D2384E003234360484B80E04849F9
:101CC400082343604B780A781B0443EA02238A788A
:101CD40043F0240343EA026383604B790A791B04CB
:101CE40043EA0223CA7813438A7943EA0263C3604E
:101CF40067E0082343603B4B1A8802F47F431B04CC
:101D040043F4C03343F009038360374BD2B21B88DA
:101D140003F0FF0142EA014203F47F431A43C26025
:101D24004FE0022343604FF4246349E02F4E304ACE
:101D340034881088844221D2001B80B2072828BF2F
:101D44000720431C26496B600B5D09194A781B0266
:101D540043F0410343EA02438A78001943EA0263E9
:101D6400AB604B790A791B0443EA0223CA783080BA
:101D740013438A7943EA0263EB6022E00023138071
:101D84001C4A1846137023E0446040F6022317E00F
:101D940002234360184B93F82B301B0243F0A50336
:101DA4000EE003234360144B9B8A1B0243F0A603FB
:101DB40006E003234360104B9B8C1B0243F0A703F4
:101DC400AB602B68012043F001032B6000E000208E
:101DD40070BDC04632010020040078C723A55A0014
:101DE400F001002012010020080100203001002031
:101DF400EE0100203E00002074010020034A1B2352
:101E04001370034B4FF496721A8070476B010020D5
:101E1400240100207047C04610B51B4B88B000E079
:101E240013461A4612F8013B2A2BF9D1114600E059
:101E340001310B782A2BFBD1002203E00DF10103C1
:101E4400985401328B185878D4B22A2801D01E2A0B
:101E5400F4D108AB1A19002302F81F3C02F06AF807
:101E64000DF10104094802F043F8204602F040F85D
:101E740002F072F8204600F037FD18B9023021460E
:101E840000F0AEFE08B010BD4001002097460008E7
:101E940013B50DF1070001F08FFF002834D01B4B60
:101EA4009DF807001A881A498854013291B23A28D9
:101EB400198006D1174A00231370174B4FF07C0288
:101EC4009A80144A13780133DBB2092B137004D1BE
:101ED400312804BF6FF00F031370072903D00D4B93
:101EE4001B78F22B10D10D4C24202178FFF7A4FE8F
:101EF4000028F8D0054B4FF000021A80054B1B78E0
:101F0400F22B01D10623A3701CBDC046EE010020B4
:101F1400F001002046000020003801403801002074
:101F240010B50446022002F0D7F823202146FFF71B
:101F340083FE044A10B11470012300E00823937057
:101F440010BDC0463801002008234360154B10B56E
:101F5400154C1A782178D200144B42EAC12242EA85
:101F640003030360637807211A02063393FBF1F33A
:101F740042F0100242EA03628260E378A2781B0412
:101F840043F0010343EA0223C3600368062243F0DB
:101F940001030360064B1A70064B4FF47A721A80E1
:101FA40010BDC046320100203B010020040060C780
:101FB4006A0100202E0100200368144ADB08137014
:101FC4008368C3F3074323B98368C3F30723292B27
:101FD40003D90E4B2A225A7002E083681B0A5370FD
:101FE400C3680A4A1B0A9370C36800211B0CD37090
:101FF4000123137104E0064A002353544B1CD9B245
:102004000529F8D9034B19707047C0463B010020DD
:102014006C0100206B010020284B1B78002B4CD155
:102024000368274ADB0813700368C3F3C743EF2B25
:10203400D3701BD1436803F00F03013B53708368D3
:10204400937083681B0A537183681B0C93718368B4
:102054001B0ED371C3681372C3681B0A5372C3681F
:102064001B0C9372C3681B0ED37223E0EE2B89BF43
:10207400144B4FF0FF33D3F8B031DB0A937043684D
:102084000F4A03F00F0353708368537183681B0A6C
:10209400937183681B0CD37183681B0E1372C3681E
:1020A4005372C3681B0A9372C3681B0CD372C36850
:1020B4001B0E1373014B04221A7070476A0100202F
:1020C4003B01002000640040836810B5DBB2132B91
:1020D40001462ED004D8102B2FD0112B47D104E069
:1020E400202B37D0FF2B42D123E0214B1B78062B2A
:1020F4000ED103681F48C3F3C70302789A4207D17D
:102104008B681D4A1B0A13708B681B0C03712EE02D
:102114001A4A9378012B2AD1CB68C3F30723232BC4
:1021240025D1CB68C3F30743EF2B20D1022393704F
:102134001DE00F4B00221A7019E00D4C2378B3B93F
:102144000F4A03681278C3F3C7239A420FD10122BE
:10215400227008E006490A784AB902230B70094B39
:102164004FF47A711980084B1A70FFF725FF10BDE0
:102174006A0100203B0100204300002038010020B8
:10218400320100202E01002047000020364B10B5FC
:102194001B78022B66D1354C03682278C3F3C7033E
:1021A4009A425FD1324B4FF47A721A808268314B73
:1021B400013AD2B201219954072353430533DAB2C9
:1021C4002D49282A0A7022D883681B0AA354531C59
:1021D4008268DBB2120CE25482680133DBB2120E65
:1021E400E254C2680133DBB2E254C2680133DBB2A9
:1021F400120AE254C2680133DBB2120CE254013316
:10220400DBB20B70C268120EE25401330B701B4B2D
:1022140016491B781848F3B1134B03221A704B78F4
:102224000432063393FBF2F3DCB2002303701A4644
:102234000DE0104B501C9B5CC1B23BB90E4B1A70A5
:10224400094B01221A70094B18710BE00A46A2428D
:10225400EFD3094B05E002784B789A4202D3024B44
:1022640004221A7010BDC0466A0100203B01002000
:102274002E0100206C0100206B010020470000208B
:10228400954810B54368C3F30723022B40F01D8122
:102294000368C3F3C743EC2B05D0EF2B09D0EB2B1A
:1022A40040F0C78002E0FFF70FFF0EE1FFF76EFF7B
:1022B4000BE10368C3F3C703302B19D1874B40F2FA
:1022C400DC521A808368D9B2012911D18368844A07
:1022D4001B0A13708368834A1B0C1380C368824AE9
:1022E4001B0E1370C368C3F307230BB97F4B19701C
:1022F40079488368DBB2262B04D103687C4ADB0867
:1023040013702CE08368DBB2402B0CD101F0C6F9CA
:10231400784B4FF000021A80774B1A78774B1A707B
:102324000122774B1AE08368DBB2232B17D1836831
:1023340045F6A522C3F30F23934210D1436803F05B
:102344000F03032B0BD16F4B00681B78C0F3C7003E
:1023540043EA002000F0BCFD6B4B01221A705E4C76
:102364002368C3F3C703362B40F0AF80674801F0FE
:10237400BFFDA368DBB2A52B1CD1654801F0B8FDF5
:10238400A36813F4000F13D1A36843F30F23022BA4
:102394000EDCA3685F4C1B0A84F82B305E4801F006
:1023A400A7FD94F82B0001F09DFD5C4801F0A0FD11
:1023B400A52038E0A368DBB2A62B18D1584801F059
:1023C40097FDA368A26847F6FF73B3EB122F0CDBEB
:1023D400A368504C1B0AA382524801F089FDA08ACD
:1023E40001F080FD4D4801F083FDA6201BE0A368A9
:1023F400DBB2A72B1AD14C4801F07AFDA368A2687E
:1024040047F6FF73B3EB122F0CDBA368414C1B0A96
:10241400A384464801F06CFDA08C01F063FD3F48A5
:1024240001F066FDA7203621FFF706FC01F094FDBC
:102434004BE03F4B1B78002B47D103682E4A1B0E01
:10244400137003681B0AD3700368C3F30723EF2BCD
:102454001AD883689370436803F00F03013B5370E9
:102464008368537183681B0A937183681B0CD3714F
:1024740083681B0E1372C3685372C3681B0A93727A
:10248400C3681B0CD3721DE003681B0C9370436874
:1024940003F00F03013B53708368537183681B0A75
:1024A400937183681B0CD37183681B0E1372C3680A
:1024B4005372C3681B0A9372C3681B0CD372C3683C
:1024C4001B0E13731A4B04221A701A4B20221A6122
:1024D400152000F071FD10BDC06500403C000020D7
:1024E40021010020220100202C01002044000020B2
:1024F40018010020300100203B0100202D010020A4
:102504003E0000203201002045000020A5460008BE
:10251400C646000874010020F1460008C3460008BE
:102524000B470008344700084C4700087A47000866
:102534006A01002000640040084810B54368C3F3F2
:10254400072313B1022B05D102E0FFF799F901E04B
:10255400FFF762FD024B2022DA6010BDB065004037
:102564000064004010B5FFF745FB044600B924E0C1
:102574001248134A03780721DB0243EA0202114B93
:102584001B7842EAC302226043781A02063393FBA3
:10259400F1F342F0130242EA0362A260C378827844
:1025A4001B0443F0FF0343EA0223E3600823636050
:1025B4002368012043F00103236010BD3B01002088
:1025C400040060C73201002010B5FFF713FB044676
:1025D40000B91FE01049114A0B78DB0243EA0202FA
:1025E4000F4B1B7842EAC30202600A790D4B1204B6
:1025F40042EA03038360CB788A781B0443F0FF0329
:1026040043EA0223C36008234360036843F00103E1
:102614000360012010BDC0463B010020040060C7D8
:1026240032010020110100FF70B5FFF7E3FA044600
:1026340000B96FE0384D07212B79384A59432B787C
:102644000239DB0243EA0202354BC9B21B7842EA83
:10265400C3020823026043606B786A5C0433D8B217
:102664002B79013143EA0223C9B2A36081424FF0BE
:10267400FF33E36005D9A3686FEA03436FEA1343AA
:102684000BE06A5CA36843EA0243A3604B1CD9B223
:10269400814204D9A36843F07F43A36035E06A5CB8
:1026A400A36843EA0263A3604B1CD9B281422CD8CD
:1026B4006B5CE3604B1CD9B2814205D9E3686FEAD5
:1026C40003636FEA13631FE06A5CE36843EA02236F
:1026D400E3604B1CD9B2814205D9E3686FEA034336
:1026E4006FEA134310E06A5CE36843EA0243E36081
:1026F4004B1CD9B2814203D9E36843F07F4303E022
:10270400E3686A5C43EA0263E3602368012043F000
:102714000103236070BDC0463B010020040058C77C
:102724003201002070B5FFF765FA044600285CD03A
:102734002E4D2F4AEB781278DB0443F0404343F0EC
:10274400040343EAC2030360EA786B78EF2A1ED1DC
:10275400072B1ED82A78036843EAC22303606B78E8
:1027640001334360AA79EB791204697942EA03627E
:10277400AB7843EA01231A438260AA7AEB7A120403
:1027840042EA0362697A2B7A43EA012324E0082BA4
:1027940002D9FFF7D9FB28E0EE2A99BF03682A780B
:1027A4000368AA78114943EAC22303604B78436063
:1027B400CA790B7A1204887942EA03624B7943EAB4
:1027C40000231A43A260CA7A0B7B120442EA036212
:1027D400887A4B7A43EA00231A43E2602368002292
:1027E40043F001032360034B1A7070BD3B010020CA
:1027F400320100206A010020054802884FF6FF7369
:102804009A4203D0034B34309842F6D17047C04605
:1028140000F0010820F8010810B5FFF7EDFF034BA5
:10282400C3189BB23420B3FBF0F010BD0010FEF7C8
:102834000E490F480B880268D21A036892B20B80C3
:102844004B88D3184B808B88D2180A4B92B21968E4
:1028540003E0A2F10A039AB20146481C0A2AF8D8F6
:10286400044B1960014B9A807047C0464800002011
:102874005800002074010020024606480378934261
:1028840001D1013004E0044B20389842F6D10348CA
:102894007047C046E0FF0108E0F701089C470008C4
:1028A4002728034601D8002204E0B0F12803DBB254
:1028B4004FF40062322000FB032000F1006000F5B9
:1028C400F0307047064B93F82900272806D8054BAB
:1028D4001A884FF6FF739A4218BF28307047C046D3
:1028E4007401002000E8010810B504460220FFF737
:1028F400C3FF0022A35C815C994201D0002004E064
:1029040011B101321F2AF5D1012010BD10B50548BF
:1029140000F01CFB044800F019FB044B002283F870
:10292400292010BD00E0010800E80108740100201E
:10293400094B4FF4FA71002259834FF2000110B58C
:102944001A821A605A609983DA83FFF7DFFF03481B
:1029540000F0FCFA10BDC0467401002000F8010824
:1029640010B508B1024800E0024801F0C1FA10BDF8
:10297400B1470008B8470008038810B504464088EA
:1029840000F0070043EA004001F0ACFA034801F00C
:10299400AFFA6088000A01F0A5FA10BDE847000804
:1029A400FF2810B503D1034801F0A2FA01E001F0B9
:1029B40099FA10BDEA47000870B5FFF771FF0546A4
:1029C400534801F095FA288801F08CFA514801F037
:1029D4008FFA95F9020001F085FA4F4B1B78002B12
:1029E40000F094804D4801F083FAE87805F114046E
:1029F40000F04000FFF7B4FF494801F079FAE878A5
:102A040000F08000FFF7ACFF464801F071FAE87867
:102A140000F00200FFF7A4FF434801F069FAE878E8
:102A240000F00400FFF79CFF404801F061FAE878E9
:102A340000F01000FFF794FF3D4801F059FAE878E0
:102A440000F00100FFF78CFF3A4801F051FAE878F2
:102A540000F00800FFF784FF374801F049FAE878EE
:102A640000F02000FFF77CFF344801F041FAA88809
:102A740001F038FA324801F03BFA0221E88801F00B
:102A8400F1F9304801F034FA288901F02BFA2E4884
:102A940001F02EFA688901F025FA2C4801F028FA91
:102AA400A88901F01FFA2A4801F022FAE88901F006
:102AB40019FA284801F01CFA287C01F013FA264878
:102AC40001F016FA687CFFF76BFF244801F010FA56
:102AD400A87CFFF765FF224801F00AFAE87CFFF7BB
:102AE4005FFF204801F004FA2046FFF745FF05F197
:102AF40018041D4801F0FCF92046FFF73DFF1A4871
:102B040001F0F6F905F11C00FFF736FF70BDC04671
:102B1400EF47000803480008A801002015480008F2
:102B2400214800082D48000841480008584800087A
:102B34006F4800087A4800088C4800089F4800083D
:102B4400AF480008C9480008E248000801490008E5
:102B54002649000840490008594900086F490008FF
:102B64007F4900088E490008AE490008174910B58E
:102B7400CA8822B3164B1B6813F0010F24D10B7AB9
:102B84000BB1013B00E04F23104C0B72637A1148E8
:102B94000133637201F0ACF9607A01F0A3F9637A4E
:102BA400012B02D10C4801F0A3F9084C207AFFF75D
:102BB40003FF01F0D1F9E388013BE38004E0074B14
:102BC4004A7293F829300B7210BDC04648000020A9
:102BD40044000240B1490008D149000874010020B2
:102BE4002DE9F0411A4C07460E4622884FF6FF7332
:102BF4009A4226D101F09EF9164801F079F920464F
:102C040001F026F901F0A8F93178204647EA0121BC
:102C1400A51C00F039F916F8012F53B299B222B16C
:102C240016F9013F41EA032399B2284600F02CF932
:102C340096F900304BB104F11E039D4205D00235D4
:102C4400E9E7054B40349C42CFD1BDE8F081C04652
:102C540000F80108F44900080000020870B5FFF705
:102C6400CBFD0F4B00F11A029A42054603D90D48D9
:102C740000F06CF90B4D01F05DF90B4801F038F9E7
:102C8400284601F0E5F801F067F90024074B2819FC
:102C9400195B023400F0F8F8342CF7D170BDC0464B
:102CA400FFF7010800F001080B4A00087401002036
:102CB40070B5294D6B89002B4CD0284B1B6813F041
:102CC400010447D1264801F013F92146688901F02F
:102CD400C9F86B893424013B9BB25C4304F1006462
:102CE40004F5F8341F486B8101F002F9206800F004
:102CF400A1FC1D4801F0FCF8606800F09BFC1B4837
:102D040001F0F6F8208A01F0EDF8194801F0F0F826
:102D14000121608B01F0A6F8164801F0E9F8A08BB8
:102D2400000901F0DFF8144801F0E2F8E08B000933
:102D340001F0D8F8114801F0DBF894F82E0001F006
:102D4400D1F80F4801F0D4F894F82F0001F0CAF834
:102D540001F002F970BDC046480000204400024062
:102D64001F4A0008484A0008594A0008664A0008F1
:102D74007A4A0008964A0008B94A0008DC4A000862
:102D8400FC4A000810B5144801F0F0F8FFF7D0FD34
:102D9400124B4FF200021A844FF0AF029A840122C0
:102DA40083F8302083F8282040F2DC529A820522EE
:102DB40083F82A204FF4966200215A824FF4487215
:102DC40083F82E10598483F82B1083F82C1083F881
:102DD4002D10DA8210BDC046154B00087401002086
:102DE40070B5FFF709FD0E4BA0F134049C42054673
:102DF40002D8FFF7C7FF12E001F09CF8094801F080
:102E040077F8204601F024F801F0A6F800216A18AA
:102E1400054B32F8342C5A5202313429F7D170BDA3
:102E2400FFEF01082B4B000874010020134AD368FC
:102E340013F0140301D11A4609E01423D360104A95
:102E440092F82E30013382F82E3015E001320B4B0C
:102E5400DB6813F0010F04D06FF07F439A42F5D181
:102E640004E0084B9A4201D8012006E0044A92F893
:102E74002F30013382F82F300020704700200240A9
:102E840074010020FEFFFF0070B505460C46FFF7F5
:102E9400CDFF28B1044B01221A612C80FFF7C6FF35
:102EA400014B00221A6170BD00200240064A1369DA
:102EB40013F0800F04D0054B536003F18833536043
:102EC400014B3422DA607047002002402301674539
:102ED40070B50446FFF7AAFF40B3184E184BB36011
:102EE40003F18833B3604FF40873336140333361C3
:102EF400FFF79CFFD0B1134D4FF404733361AC80E2
:102F0400FFF794FF90B1230AEB80FFF78FFF68B1BE
:102F140000242C81FFF78AFF40B16C81FFF786FF04
:102F240020B12C80FFF782FF346105E0034B0022BF
:102F34001A61054801F01AF870BDC046002002402D
:102F44002301674500F8FF1F404B000870B5054694
:102F540000F0F0FF0E4800F0CBFF284600F078FFA9
:102F640000F0FAFFFFF762FF60B10A4C022323610D
:102F7400403365612361FFF759FF18B100232361D2
:102F8400012003E0034B00221A61104670BDC046C5
:102F9400604B00080020024010B5064C420923187B
:102FA40083F8001300F01F000123834044F822300B
:102FB40010BDC04600E100E04109012300F01F00FC
:102FC4008340024A603142F82130704700E100E05A
:102FD4000046704710B5024800F0C8FFFEE7C0463F
:102FE400734B000810B5024800F0C0FFFEE7C0466E
:102FF400814B000810B5024800F0B8FFFEE7C04658
:10300400924B000810B5024800F0B0FF10BDC04656
:10301400994B000810B5094800F0A8FF084B4FF081
:1030240000021A80064B1B8813F0400FFAD0054AA1
:10303400054BDA60BFF34F8FFEE7C046A04B000894
:10304400003801400407FA0500ED00E010B504461D
:1030540000F070FF20460F4C00F04AFFFFF7B8FF66
:1030640000F0F6FE606A00F0F3FEA06A00F0F0FEE5
:10307400E06A00F0EDFE206B00F0EAFE606B00F009
:10308400E7FEA06B00F0E4FEE06B00F0E1FE00F070
:1030940063FFFEE700ED00E010B570460148FFF75E
:1030A400D5FF10BDAC4B000810B570460148FFF7C2
:1030B400CDFF10BDBB4B000810B570460148FFF7AB
:1030C400C5FF10BDC84B000810B570460148FFF796
:1030D400BDFF10BDDA4B0008164A174B00211360E0
:1030E400164B17485360174BD16002F5806213608A
:1030F40050604FF08843D16002F5806213604FF056
:10310400223353604FF44063D36002F580624FF082
:10311400443313600C4B53600C4BD16002F5806256
:10312400106053604FF40073D360094B4FF4DE52C8
:103134005A6070470008014044442244A4444A446D
:10314400422222224444444244442224222224226D
:10315400000001401A4B1B6803F04001194B1B7817
:10316400012B06D0022B01D119B904E0032B02D1A3
:1031740009B9012200E00022134B1A70134B1B788B
:10318400012B06D0022B01D119B904E0032B02D183
:1031940009B9012200E000220D4B1A700D4B1B7877
:1031A400012B06D0022B01D129B102E0032B02D15D
:1031B40009B9012200E00022074B1A707047C0468B
:1031C40058000020A901002090012342AA010020F8
:1031D4008C012342AF01002088012342082806D82D
:1031E400DFE800F0070E161C250529323B000020FD
:1031F4003BE01E4B1B78D3F1010038BF002034E0C4
:103204001B4B1B8AB3F5206F94BF002001202CE0D8
:10321400184B1B78181E18BF012026E0164BB3F973
:103224004630B3F5105FD4BF002001201DE0124BDF
:10323400B3F9463002E0104BB3F95230B3F53C7F9A
:10324400ACBF0020012010E00B4BB3F95230B3F5B2
:10325400605FD4BF0020012007E0074BB3F98E3034
:10326400B3F5405FD4BF0020012070471481214290
:1032740064000020388122427800002010B5044602
:10328400FFF7ACFF0D4B1B5D052B11D8DFE803F0F6
:1032940003060F090C0F80B101220CE040B1022299
:1032A40009E050B9042206E020B9052203E008B978
:1032B400002200E00322014B1A5510BDB101002089
:1032C400044B054A93F82D300BB1002300E003238F
:1032D4001370704774010020BB01002070B50024F6
:1032E400254620460135FFF7C9FF631C092DDCB2D2
:1032F400F7D170BD0E4B1A780E4B012A18BF00226D
:103304001A700D4B1B7823B10C4B1B880BB1012297
:1033140000E000220A4B1A700A4BB3F922301F2B2B
:1033240001DC012200E00022074B1A707047C046FE
:10333400AC010020B0812242AE0100203C000020FC
:10334400A001224278000020A8812142114B197863
:10335400114B71B95B78114A032B03D113780133F4
:10336400137000E011700D4B1B78092B10D901224A
:103374000CE05B78094A13B91378013300E00023A9
:103384001370064B1B78092B02D90022014B1A70CB
:103394007047C046AE010020B10100205400002057
:1033A400224A92F82C1071B1214B928C1978214B3E
:1033B40021B91B889342204A1ED219E01B889342EC
:1033C4001D4A28D324E092F82D301BB91B4B03224D
:1033D4001A7003E0012B04BF184B1970144B1748E3
:1033E4001978174B79B91A7A03789A42124A03D199
:1033F40053780133537000E051700F4B5B78092B05
:1034040012D901220EE01A7A03789A420A4A02D0AB
:103414005378013300E000235370074B5B78092B8A
:1034240002D90022024B1A707047C0467401002072
:10343400B00100201001002054000020BB01002036
:10344400B101002010B5054C2378012B05D1FFF7FD
:1034540005FCFFF7DFFD0023237010BD45000020AD
:103464000E4B10B51B78072B16D8DFE803F00406C3
:10347400080A0C0E10120A480CE00A480AE00A482E
:1034840008E00A4806E00A4804E00A4802E00A485C
:1034940000E00A4800F02CFD10BDC046AC0100203D
:1034A400E84B0008ED4B0008F54B0008FE4B000804
:1034B400104C0008174C0008214C0008294C000847
:1034C40010B51C4B1B78212B33D8DFE803F0111304
:1034D4001517191B1D1F2123252732292B2D3232A5
:1034E4003232323232323232323232323232322FBB
:1034F40011481CE011481AE0114818E0114816E080
:10350400114814E0114812E0114810E011480EE08F
:1035140011480CE011480AE0114808E0114806E09F
:10352400114804E0114802E0114800E0114800F09D
:10353400DFFC10BD2C0100202F4C0008354C000886
:103544003E4C0008474C0008514C00085B4C0008F6
:10355400644C00086D4C0008774C0008814C00084E
:103564008A4C0008954C00089E4C0008A84C0008A2
:10357400B14C0008BA4C000810B510B1032804D1AE
:1035840001E0044802E0044800E0044800F0B0FC14
:1035940010BDC046C44C0008B1470008C94C00081F
:1035A40010B50446044800F0A3FC204600F0A0FC3B
:1035B400024800F09DFC10BDD14C0008F24C0008FC
:1035C40010B505280CD8DFE800F003050507090944
:1035D400054806E0054804E0054802E0054800E027
:1035E400054800F085FC10BDD44C0008DC4C0008F4
:1035F400E44C0008EC4C0008C94C00083C23B0FB28
:10360400F3F010B5012100F02DFC024800F070FC2D
:1036140010BDC046B84D000810B50446044800F07B
:1036240067FC0A20B4FBF0F0FFF7E8FF10BDC046CA
:10363400BE4D00084FF46163B0FBF3F010B50121F7
:1036440000F010FC014800F053FC10BDD44D0008FC
:1036540010B50D4C0D4800F04BFC208A00F042FCE4
:103664000B4800F045FC2068FFF7E4FF094B18887D
:10367400FFF7D2FF084800F03BFC6068FFF7DAFF71
:1036840000F06AFC10BDC04674010020D94D00084A
:10369400EE4D00084A000020014E000810B55048C5
:1036A40000F026FC4F48FFF77BFF4F4800F020FC5A
:1036B4004E48FFF775FF4E4800F01AFC4D4800F0E5
:1036C40017FC4D4800F00EFC4C4800F011FC0221A0
:1036D400012000F0C7FB4A4800F00AFC494800F00A
:1036E40007FC494800F004FC484800F001FC484845
:1036F40000F0FEFB474800F0FBFB0120FFF7BCF89D
:1037040000F0F6FB4448FFF74BFF444800F0F0FBA1
:103714000020FFF7B1F800F0EBFB414800F0E8FBB4
:10372400404B0121188800F09DFB3F4C334800F0CA
:10373400DFFB3E4800F0DCFB6078FFF741FF3648D2
:10374400FFF72EFF3A4800F0D3FB207AFFF738FF4B
:10375400384800F0CDFB384B0121188800F082FB7B
:10376400364800F0C5FB364800F0C2FB354B93F8F1
:103774002C301BB1344800F0BBFB06E0334800F0AA
:10378400B7FB334B1878FFF7F7FE324800F0B0FB75
:10379400FFF796FE20482B4CFFF702FF2E4800F05F
:1037A400A7FBFFF75DFE2D4800F0A2FB94F82A006A
:1037B40000F098FB2A4800F09BFB608A00F092FB23
:1037C400284800F095FBA08A00F08CFB264800F006
:1037D4008FFBE08A00F086FB244800F089FB10BDD3
:1037E4000F4E0008134E0008164E00083A4E00080B
:1037F4003D4E0008554E0008A587C7026E4E0008CE
:10380400714E0008734E0008804E00088C4E00086C
:10381400914E00089A4E0008AF4E0008B24E0008C0
:10382400C14E000808010020B1010020D64E000856
:10383400EE4E0008074F000810010020284F000832
:103844002D4F000874010020404F00084D4F000820
:10385400BB0100205D4F00086F4F0008894F00082E
:103864009F4F0008AD4F0008BF4F0008104E0008DE
:1038740010B5474C00F05EFB464800F039FBB4F845
:103884005E0000F0D9FA444800F032FBB4F86A0054
:1038940000F0D2FA414800F02BFBB4F8760000F0B7
:1038A400CBFA3F4800F024FBE08D00F0C5FA3D4818
:1038B40000F01EFB608900F0BFFA3B4800F018FBE3
:1038C400E08A00F0B9FA394800F012FB608C00F08D
:1038D400B3FA374800F00CFBB4F8820000F0ACFAFD
:1038E400344800F005FB608F00F0A6FA324800F07F
:1038F400FFFAB4F8460000F09FFA304800F0F8FAF6
:10390400B4F852002E4C00F097FA2E4800F0F0FA6A
:10391400208800F091FA2C4800F0EAFA608800F060
:103924008BFA2A4800F0E4FAA08800F085FA2848C7
:1039340000F0DEFAE08800F07FFA264800F0D8FABA
:10394400208900F079FA244800F0D2FA608900F066
:1039540073FA224800F0CCFAA08900F06DFA2048EE
:1039640000F0C6FAE08900F067FA1E4800F0C0FAD9
:10397400208A00F061FA1C4800F0BAFA608A00F06C
:103984005BFA1A4800F0B4FA00F0E6FA10BDC0463B
:1039940078000020D14F0008E04F0008F34F0008E2
:1039A400065000081450000826500008395000083A
:1039B400445000085250000865500008795000082F
:1039C400640000208D500008A0500008B250000888
:1039D400C4500008D6500008E4500008F250000813
:1039E40001510008105100081F510008104E000832
:1039F40013B50DF1070000F0DFF9002800F0908105
:103A04009DF8072096491B2A0AD14FF49672954BCC
:103A14000A804FF000021A80934800F0A7FA7FE171
:103A24000B88002B00F07C810024662A0C804FD088
:103A340020D84D2A00F0DC800FD8482A53D006D86D
:103A4400212A00F0B3803F2A40F06A8164E1492AC8
:103A540046D04C2A40F06481D7E0612A31D003D8A3
:103A6400522A40F05D8123E0632A26D0652A40F083
:103A740057812AE06D2A3BD009D8682A2DD07AD301
:103A84006A2A00F097806B2A40F04A819EE0722AED
:103A94000AD003D8702A40F04381CDE0742A59D06B
:103AA400792A40F03D8166E04AF6AA20FFF710FA31
:103AB400FFF7D4F8FFF7AEFA32E1FF20FEF730FA51
:103AC4002EE1FEF7FFFE694B10E0FEF71FFF27E132
:103AD400674A664B12881A8022E1FFF7B9FD1FE19D
:103AE400FFF7C6FE1CE1FEF797FE624B188017E154
:103AF400614800F0FDF9614800F0FAF9604800F00F
:103B0400F7F9604800F0F4F95F4800F0F1F95F4814
:103B140000F0EEF95E4800F0EBF95E4800F0E8F9D9
:103B24005D4800F0E5F95D4800F0E2F95C4800F01A
:103B3400DFF95C4800F0DCF95B4800F0D9F95B4838
:103B440000F0D6F95A4800F0D3F95A4800F0D0F9F9
:103B540059486EE0594C5A4800F0CAF9237823B109
:103B6400584800F0C5F9002303E0574800F0C0F9B5
:103B740001232370D2E0FEF7A5FE3D49C0B20A88B6
:103B8400824201D3088008E09DF80730792B01D1E7
:103B9400531C01E00AB1531E0B804C4800F0A8F9F5
:103BA400334B188800F09EF9494842E0FFF7EAF8E1
:103BB40048483EE0484800F09BF9484800F098F92E
:103BC400474A938C092B0DD90A3B0AE0454800F07B
:103BD4008FF9424800F08CF9414A938CD72B01D8D5
:103BE4000A3393843E4B988C00F07CF93E4820E0E5
:103BF4003E4800F07DF93E4A13781BB90133137037
:103C04003C4816E014703C4813E03C4800F070F95E
:103C1400334A3B4892F82D1031B1002382F82D30FD
:103C240003330370374804E001230170364882F8F7
:103C34002D3000F05DF971E0294C344800F058F95A
:103C440094F82C3023B1324800F052F9002303E0F9
:103C5400304800F04DF9012384F82C305EE0C04672
:103C6400EC010020EE0100202E5100084E0000203F
:103C740004000020520000204E5100087351000837
:103C8400AA510008CC510008EA5100080352000868
:103C94001B520008315200084852000870520008B4
:103CA40095520008BD520008D45200080053000881
:103CB4001C5300083D53000857530008A801002076
:103CC40081530008945300089F530008A853000828
:103CD400B5530008C4530008DE5300080854000814
:103CE400740100202C540008245400085654000881
:103CF400BA0100207C540008AA540008D7540008D4
:103D0400BB0100200955000826550008415500084C
:103D14005A5500086D550008FFF7C0FC00F01CF967
:103D24001CBDC04610B500F0FDF838BB144B9B78A1
:103D3400082B23D8DFE803F0052222220817221AD1
:103D44001C00FFF755FE19E00D4C0E4800F0D0F8AA
:103D5400207800F055F80C4800F0CAF800F0FCF8A0
:103D64000523A3700AE0FEF793F807E0074800E094
:103D7400074800F0FBF8024B00229A7010BDC046C1
:103D8400380100207F550008104E0008A055000897
:103D9400BD550008054B002205491A604FF47043D5
:103DA4004B60044B4A601A807047C046440002408E
:103DB40000000240EE0100200A4B0B495B680A78C0
:103DC400C3F11403DBB29A4201D1002009E0074B8E
:103DD400122A9B5C037001D8531C00E000230B7073
:103DE400012070475800024056000020F0090020CE
:103DF40000F00F00092801D8303000E03730704758
:103E04002DE9F04106460009FFF7F2FFDFF82480B0
:103E1400074DB8F8004028553046FFF7E9FF013454
:103E2400A4B228550134A8F80040BDE8F081C0468A
:103E3400F0010020EE01002007B502AB23F8020DCB
:103E44005878FFF7DDFF9DF80600FFF7D9FF0EBD98
:103E540007B50190000CFFF7EFFFBDF80400FFF772
:103E6400EBFF0EBD2DE9F047B0F10008894608DAF2
:103E740019481A4A03882D21D15401330380C8F10B
:103E84000008154B164F1D88002109264E4501D107
:103E9400012108E009F1FF339E4204D10F4A2E2389
:103EA40053556B1C9DB298FBF7F3DCB204B949B1CE
:103EB4002046FFF79DFF07FB1488084B0121585546
:103EC4006B1C9DB2013E03D30A2397FBF3F7DDE796
:103ED400014B1D80BDE8F087EE010020F0010020B9
:103EE40000CA9A3B10B50021FFF7BCFF10BDC046C5
:103EF40010B54FF0000C04460AE0084B08491A8834
:103F04000CF1010C88540132BCF13C0F1A8003D02F
:103F140014F80C000028F0D110BDC046EE010020BA
:103F2400F0010020024B186800F001007047C04601
:103F34004400024010B5FFF7F5FF0028FBD110BD87
:103F4400034B044A1B88536041F293031360704788
:103F5400EE01002044000240034B10B51B880BB156
:103F6400FFF7EEFF10BDC046EE01002010B5044679
:103F7400FFF7E0FF2046FFF7BBFFFFF7EDFF10BDA3
:103F8400164A4FF00C03938170B54FF0C003002420
:103F94001482938240F6055313819389104D9BB28A
:103FA40043F4005393810F4A0F4B14609560D36020
:103FB4000E4B4FF470425A600E201021FEF7ECFFB6
:103FC4000B4A0C4B14609560D3601423536041F288
:103FD400A1031360084B1C8070BDC046003801402B
:103FE4000438014044000240F00100200000024077
:103FF40058000240F0090020EE010020294A13680D
:1040040043F001031360274A136813F0020FFAD038
:104014004FF414235360136823F0847323F4803320
:104024001360136823F4802313604FF41F03936019
:10403400136843F4803313601A490B6813F4003F88
:10404400FAD0194B11221A604FF414234B600B68F9
:1040540043F080730B60134A136813F0007FFAD0A7
:10406400124B53600F4A536803F00C03082BF9D129
:10407400D36943F0007343F48043D36144F27D2356
:104084009361536943F0010353614FF0204280234D
:104094001360936013619361054B4FF4E0225A62FD
:1040A4007047C04600100240002002400240090050
:1040B40000ED00E00549064B60224B60054B83F898
:1040C400232000238B6007330B60704710E000E06F
:1040D400FF70020000ED00E0034B1B68C018024BA8
:1040E4001B689842FBD170475800002010B5044665
:1040F40002E06420FFF7F0FF631E5CB2B4F1FF3FFF
:10410400F7D110BD054A938801339BB213F0010F18
:10411400938002D013680133136070475800002065
:10412400054A138A23F480431B041B0C138241F2B7
:10413400342393847047C04600040040024A9368C5
:1041440023F0010393607047002C00400406000034
:1041540094012342BC01214204050000940123423E
:10416400BC0121420402000094012342BC0121420B
:104174000403000094012342BC0121420400000016
:10418400BC012142BC0121420401000094012342EC
:10419400980123420404000094012342980123421D
:1041A400000000000000000000000000000000000B
:1041B40000000000000000000000000000000000FB
:1041C40000000000000000000000000000000000EB
:1041D400000000000000000000000000C012C01237
:1041E400C012C012C012C012C012C012C012C0123B
:1041F400C012C012C012C012C012C012C012C0122B
:10420400C012C012C012C012C012C012C012C0121A
:10421400C012C012C012C012C012C012C012C0120A
:10422400C012C012C012C012C012C012C012C012FA
:10423400C012C012C012C012AA120D125B11C51016
:104244004310D10F690F0D0FB90E6A0E250EE20D42
:10425400A60D6C0D340D030DD20CA30C7A0C500C6E
:10426400260C020CDE0BBB0B970B780B5A0B3C0B8A
:104274001E0B000BE70ACD0AB30A9A0A800A680AE1
:10428400530A3D0A270A120AFC09E609D309C009A0
:10429400AE099B0989097609640951094109320962
:1042A400220912090209F308E308D308C408B6086E
:1042B400A8089B088D0880087208650858084A08F1
:1042C4003D082F08240818080C080108F507EA0718
:1042D400DE07D207C707BB07B007A40799078F07F4
:1042E40085077B07710767075D07530749073F0782
:1042F40035072B07210717070D070407FB06F206EE
:10430400E906E106D806CF06C606BD06B406AC0625
:10431400A3069A06910688067F0677067006680645
:104324006006580650064806400638063006290638
:1043340021061906110609060106F905F105EA0523
:10434400E305DC05D505CE05C605BF05B805B105F1
:10435400AA05A3059C0595058D0586057F057805A9
:1043640071056A0563055C0555054F054805420559
:104374003B0534052E05270521051A0513050D05F2
:1043840006050005F904F304EC04E504DF04D8048D
:10439400D204CB04C504BF04B904B304AC04A6041A
:1043A400A0049A0493048D04870481047B04740498
:1043B4006E04680462045C0455044F044904430415
:1043C4003D04370431042B0425041F041904130489
:1043D4000D0407040104FB03F503EF03E903E303FE
:1043E400DD03D703D103CB03C503BF03B903B30371
:1043F400AD03A703A1039B0395038F0389038303E1
:104404007D03770371036B03660360035A0354034C
:104414004E03480342033C03360330032A032403B8
:104424001E03180312030C0306030003FA02F4022A
:10443400ED02E702E102DB02D502CF02C902C302A8
:10444400BD02B702B102AB02A5029E02980292021B
:104454008C0286027F02790272026C0266025F029B
:10446400590252024C0246023F02390232022C0225
:1044740025021F02190212020C020502FF01F801B3
:10448400F101EA01E301DC01D501CE01C701C0015C
:10449400B901B201AB01A4019D0196018F0188010C
:1044A40082017B0174016C0164015D0155014D01C0
:1044B40045013D0135012E0126011E0116010E01A3
:1044C4000601FF00F700EF00E700DF00D600CD0093
:1044D400C400BB00B200A900A00097008E008500B4
:1044E4007C0073006A00610058004E0043003900EC
:1044F4002E00230019000E000300F8FFEEFFE3FF77
:10450400D8FFCEFFC3FFB6FFA9FF9CFF8FFF82FF3A
:1045140075FF68FF5BFF4EFF41FF33FF24FF14FF6D
:1045240004FFF3FEE3FED3FEC3FEB2FEA2FE8EFE44
:1045340079FE65FE50FE3BFE27FE12FEF8FDDDFD12
:10454400C2FDA7FD8CFD6DFD49FD26FD02FDD9FCD4
:10455400AAFC90FC90FC90FC90FC90FC90FC90FCDD
:1045640090FC90FC90FC90FC90FC90FC90FC90FCE7
:1045740090FC90FC90FC90FC90FC90FC90FC90FCD7
:1045840090FC90FC90FC90FC90FC90FC90FC90FCC7
:1045940090FC90FC90FC90FC90FC90FC90FC90FCB7
:1045A40090FC90FC90FC90FC90FC90FC90FC90FCA7
:1045B40090FC90FC90FC90FC90FC90FC90FC90FC97
:1045C40090FC90FC90FC90FC90FC90FC90FC90FC87
:1045D40090FC90FC90FC90FC90FC90FC0D0A0A3E30
:1045E4003E3E3E446F6F73616E204175746F737409
:1045F400617274204D6F64756C653C3C3C3C0D0AE3
:10460400000A0D5072657373204553432074686526
:104614006E20276D2720666F72206D656E75000D04
:104624000A0A5368757474696E6720646F776E2024
:104634000041444320444D41206572726F72005220
:10464400656D6F7465204E4F5652414D20696E69F9
:104654007469616C697A65640A0D000A0D2043412E
:104664004E206572726F722120000A0D43414E2064
:10467400696E6974206572726F7221000A0D43417C
:104684004E20696E6974206D6F6465206572726F67
:104694007221000A0D466F756E642045434D3A2021
:1046A400000D0A496E636F6D696E672063616E4722
:1046B400617465576179206D6573736167652E0D4B
:1046C4000A000D0A496E636F6D696E672063616E3F
:1046D40047617465576179202D204175746F737437
:1046E400617274206D6574686F640D0A000D0A535D
:1046F400656E74204175746F7374617274206D6596
:1047040074686F643A20000D0A496E636F6D696EB8
:10471400672063616E47617465576179202D20417C
:1047240075746F73746172742074696D650D0A0019
:104734000D0A53656E7420636F6F6C20646F776E1F
:104744002074696D653A20000D0A496E636F6D69C6
:104754006E672063616E47617465576179202D200F
:104764004175746F737461727420746872657368D0
:104774006F6C640D0A000D0A53656E7420636F6FCD
:104784006C206175746F73746172742074687265DF
:1047940073686F6C643A20004E4F4E4520202020F1
:1047A40020202020202020202020202000434C4FA7
:1047B400534544004F50454E2020000A0D4D61637F
:1047C40068696E653A20000A0D436F6E74726F6CEF
:1047D4006C65723A20000A0D456E67696E65205358
:1047E4004E3A20002F004E412020000A0D09506F40
:1047F400776572204F4E20636F756E743A20000AFD
:104804000D0950726F626C656D20436F64653A20C8
:10481400000A0D09452D53746F703A2000090909E7
:104824000953746172743A20000A0D094C6F7720A1
:104834004675656C20416C6572743A20000909095B
:104844004C6F77204675656C2053687574646F7778
:104854006E3A20000A0D09456E67696E652041694C
:10486400722046696C7465723A200009093A5761EE
:104874006B65757020000A0D093A4D616E75616CA7
:1048840020526567656E20000909093A526567651B
:104894006E20496E686962697420000A0D09456ECC
:1048A40067696E652052504D3A2000090909095282
:1048B4006567756C6174696F6E205072657373758A
:1048C40072653A2000205053490A0D094F757470DF
:1048D40075742050726573737572653A20002050A8
:1048E400534909090944697363686172676520540F
:1048F400656D70657261747572653A20002050535D
:10490400490A0D0953657061726174696F6E2054B0
:10491400616E6B2054656D70657261747572653A71
:1049240020002044656746095468726F74746C658E
:1049340020506F736974696F6E3A20002052504D95
:104944000A0D094D616368696E6520494420436F0F
:1049540064653A20000909094175746F53746172E2
:1049640074207374617475733A20000A0D094F54EE
:1049740043207374617475733A200009090949511D
:10498400207374617475733A20000A0D09456E67CB
:10499400696E65204661756C7420436F646573208D
:1049A40053504E2F464D493A20002C20000A0A0D40
:1049B400094449492D505020544954414E206661C0
:1049C400756C74206C697374696E672000202D20E7
:1049D4006D6F737420726563656E74000A0D57728F
:1049E4006974696E67204661756C743A203078008A
:1049F4000A0D57726974696E67204964656E74693B
:104A040074793A203078000A0D57726974696E67B8
:104A1400204E4F5652414D203078000A0A0D094469
:104A240049492D505020544954414E206D616368CA
:104A3400696E65206865616C7468206C697374695B
:104A44006E6720000A0D54696D6520706F7765727A
:104A540065643A20000A0D52756E2074696D653ADA
:104A640020000A0D506F776572206F6E20637963A2
:104A74006C65733A20000A0D4D696E696D756D2081
:104A84006261747465727920766F6C746167653ADB
:104A9400200020646567460A0D4D696E696D756D69
:104AA40020626F6172642074656D706572617475E3
:104AB40072653A200020646567460A0D4D61786985
:104AC4006D756D20626F6172642074656D706572BE
:104AD40061747572653A2000696E7374616C6C65FB
:104AE400640A0D464C415348207772697465206509
:104AF40072726F72733A20000A0D464C415348207B
:104B040074696D656F7574206572726F72733A2083
:104B1400000A0D496E697469616C697A696E67206F
:104B24004E4F5652414D000A0D52656164696E67DD
:104B3400204E4F5652414D3A203078000A0D5072A3
:104B44006F626C656D2077726974696E67206F702F
:104B540074696F6E20627974657321000D0A457261
:104B64006173696E6720464C415348203078000DCC
:104B74000A50656E64696E6720535621000D0A441D
:104B840065627567204D6F6E69746F7221000D0A3E
:104B940053564321000D0A4E4D4921000A0D52651A
:104BA40073657474696E67000D0A557361676520D7
:104BB4004661756C7421000D0A4275732046617557
:104BC4006C7421000D0A4D656D6F7279204D616E14
:104BD4006167657221000D0A48617264204661753F
:104BE4006C74210049646C6500537461727475704F
:104BF400005374617274696E6700436F6D707265FF
:104C0400736F722052756E6E696E67004C6F6164CB
:104C1400656400436F6F6C20646F776E0053746F2C
:104C240070706564004572726F72005265616479D8
:104C3400004372616E6B696E6700526576696E67D8
:104C44002031004E6F7420353050534900352053C5
:104C540065636F6E647300556E6C6F6164656400A8
:104C6400526576696E672032005072656C6F6164BC
:104C74006564004C6F61646564204C6F0053687513
:104C840074646F776E004175746F7374617274200D
:104C94000053746F7070696E67004C6F6164656473
:104CA40020486900436F6F6C646F776E00507265C3
:104CB4002D636F6F6C00566572696679696E670063
:104CC4004F50454E004552524F522120001B5B006D
:104CD4004F50454E20202000434C4F53494E47002F
:104CE400434C4F53454420004F50454E494E4700D6
:104CF4000A0A50726F766964652070726573737501
:104D0400726520696E7075742C2073746172746995
:104D14006E672066726F6D2064656661756C7420C1
:104D24006F663A09000A0D507265737320276A276B
:104D340020746F20646563726561736520746865AF
:104D44002070726573737572652074687265736818
:104D54006F6C642C20507265737320276B2720744A
:104D64006F20696E63726561736520746865207075
:104D740072657373757265207468726573686F6C9D
:104D840064000A0D507265737320274573632720EE
:104D9400746F207175697420616E64207361766527
:104DA40020746865206E6577207468726573686F17
:104DB4006C642E00206D696E73002020202020205A
:104DC40009546869732073657373696F6E3A2000C0
:104DD40020687273000A0A0D506F776572206F6E37
:104DE400206379636C65733A09000A0D54696D6533
:104DF40020706F77657265643A200909000A0D52C4
:104E0400756E2074696D653A0909000A0A0D00324D
:104E14003400446F6F73616E20496E667261636F14
:104E24007265202D20506F727461626C6520506F22
:104E34007765720A0D00323900436F727465782009
:104E44004175746F7374617274204D6F64756C6511
:104E5400000A0A0D536F667477617265205061729F
:104E640074204E756D626572200020560042000960
:104E740020204275696C74206F6E20004175672094
:104E84003139203230313300206174200031303A1E
:104E940034333A3439000A0A0D436F6E74726F6CFE
:104EA4006C6572204E616D653A20003433004D61AB
:104EB4006368696E65204E616D653A20000A0A0DCB
:104EC4004261747465727920766F6C746167653AB7
:104ED40020000A0A0D4175746F2D4D616E75616C69
:104EE400207377697463683A200052656D6F746546
:104EF4002070726573737572652073776974636863
:104F04003A20000A0A0D5072657373757265207435
:104F140072616E7364756365722072656164696E33
:104F2400673A200020707369000A0A0D5072657395
:104F340073757265206D6F64653A2000416E616C13
:104F44006F6720696E707574004469676974616C79
:104F540020696E7075743A20000A0A0D5449544150
:104F64004E205374617475733A20004175746F73E5
:104F740074617274204D6F64756C65205374617430
:104F840075733A20000A0A0D4E756D626572206FC2
:104F940066206372616E6B733A20000A0D5761726A
:104FA4006E2074696D653A20000A0D436F6F6C645E
:104FB4006F776E2074696D653A20000A0D5265633F
:104FC40072616E6B2064656C61793A20000A0D0A87
:104FD400626174746572793A203078000A0D7265E2
:104FE40067756C6174696F6E20503A203078000ADE
:104FF4000D73657061726174696F6E20503A203070
:1050040078000A0D616D6269656E743A203078002B
:105014000A0D64697363686172676520543A2030CD
:1050240078000A0D73657061726174696F6E205443
:105034003A203078000A0D6675656C3A20307800A5
:105044000A0D626F61726420543A203078000A0DB0
:10505400616972656E64206F696C20503A20307803
:10506400000A0D737461727420636F6E74726F6CD6
:105074003A203078000A0D726567656E20636F6EA2
:1050840074726F6C3A203078000A0A0D72617720CE
:10509400626F61726420543A203078000A0D7261A4
:1050A4007720626174746572793A203078000A0D51
:1050B40072617720414443204920323A20307800FD
:1050C4000A0D72617720414443204920313A20304F
:1050D40078000A0D726177204D55583A20307800D7
:1050E4000A0D726177205254443A203078000A0D38
:1050F4007261772041494E393A203078000A0D72A6
:1051040061772041494E383A203078000A0D7261A7
:10511400772044494E323A203078000A0D72617784
:105124002044494E333A203078000A0D53696E67A3
:105134006C65206B657920636F6D6D616E6473209F
:10514400656E61626C65640A0D000A0A0D4553437D
:1051540020656E61626C657320612073696E676C93
:1051640065206B657920636F6D6D616E643A000A2A
:105174000D642F783A2041646A75737420646973EE
:105184006368617267652074656D706572617475BA
:105194007265204175746F4C6F6164207468726528
:1051A40073686F6C64000A0D792F673A2041646A52
:1051B4007573742023206661756C747320746F207A
:1051C400646973706C6179000A0D743A20546F67D6
:1051D400676C65204661756C74204C6973743C2D52
:1051E4003E436F6465000A0D663A20446973706C2F
:1051F40061792023206F66204661756C7473000A00
:105204000D613A20446973706C617920616C6C2083
:105214004661756C7473000A0D653A2045726173BA
:105224006520616C6C204661756C7473000A0D71A5
:105234003A204368616E6765206D616368696E65D5
:10524400204944000A0D683A20446973706C6179FE
:10525400206C6174657374206D616368696E652088
:105264006865616C74682064617461000A0D483A71
:1052740020446973706C617920616C6C206D61638A
:1052840068696E65206865616C7468206461746126
:10529400000A0D493A20446973706C617920726187
:1052A4007720617665726167656420616E616C6FF9
:1052B4006720696E70757473000A0D523A20526546
:1052C4007365742074686973206D6F64756C650010
:1052D4000A0D703A20456E61626C65642F446973EF
:1052E40061626C652052656D6F74652050726573E0
:1052F4007375726520537769746368000A0A0D72C6
:105304003A20526570726F6772616D2074686973B8
:1053140020646576696365000A0D633A20526570FE
:10532400726F6772616D206F746865722043414EBD
:105334002064657669636573000A0A0D213A204981
:105344006E697469616C697A65204E4F5652414D9D
:105354000A0D000A0D3F3A20446973706C6179208C
:1053640070726573656E74206F7065726174696EB6
:105374006720636F6E646974696F6E73000A0D460B
:1053840061756C74204C6F672073686F77732000AD
:10539400636F646573206F6E6C7900616C6C20645C
:1053A40061746100662077696C6C2073686F772084
:1053B4000020726563656E74206661756C74730099
:1053C4000A0D4E4F5652414D20697320696E69741F
:1053D40069616C697A65640A0D000A0D446563723B
:1053E4006561736520707265737375726520746886
:1053F400726573686F6C6420627920313020707339
:10540400690A0D000A0D4E65772070726573737515
:105414007265207468726573686F6C643A0A0D0073
:10542400207073692E0A0D000A0D496E637265615E
:105434007365207072657373757265207468726524
:1054440073686F6C64206279203130207073690A4C
:105454000D000A0D4368616E6765207468652063FA
:105464006F6F6C646F776E20616374756174696FBC
:105474006E20746F3A0A0D000A0D436F6F6C646FEF
:10548400776E206F6E207472616E736475636572DB
:1054940020707265737375726520746872657368C1
:1054A4006F6C640A0D000A0D436F6F6C646F776E46
:1054B400206F6E2072656D6F7465207072657373F2
:1054C4007572652073776974636820737461746599
:1054D4000A0D000A0D4368616E67652074686520D3
:1054E400707265737375726520737769746368206D
:1054F400737461746520706F6C617269747920745F
:105504006F3A0A0D000A0D436F6F6C646F776E205B
:105514006F6E20434C4F5345442073746174650A85
:105524000D000A0D436F6F6C646F776E206F6E20F1
:105534004F50454E2073746174650A0D000A0D5373
:10554400657420707265737375726520696E707509
:105554007420746F3A000A0D4469676974616C20A1
:10556400696E7075742E0A0D000A0D416E616C6FC0
:105574006720696E7075742E0A0D000A0D526561FC
:10558400647920746F20726570726F6772616D2028
:1055940043414E2073657276657220000A0D53757F
:1055A400636365737366756C20726570726F67727E
:1055B400616D6D696E670A0D000A0D43414E2065E9
:1055C40072726F72202D2063616E627573206F6634
:1055D400666C696E650A0D000A0D54657374204487
:0855E4006174613A200000002F
:0855EC00C800010003000000EB
:04000005080011E4FA
:00000001FF
